{
  "abi": [
    {
      "inputs": [
        {
          "internalType": "address",
          "name": "marketPlaceAddress",
          "type": "address"
        }
      ],
      "stateMutability": "nonpayable",
      "type": "constructor"
    },
    {
      "anonymous": false,
      "inputs": [
        {
          "indexed": true,
          "internalType": "address",
          "name": "owner",
          "type": "address"
        },
        {
          "indexed": true,
          "internalType": "address",
          "name": "approved",
          "type": "address"
        },
        {
          "indexed": true,
          "internalType": "uint256",
          "name": "tokenId",
          "type": "uint256"
        }
      ],
      "name": "Approval",
      "type": "event"
    },
    {
      "anonymous": false,
      "inputs": [
        {
          "indexed": true,
          "internalType": "address",
          "name": "owner",
          "type": "address"
        },
        {
          "indexed": true,
          "internalType": "address",
          "name": "operator",
          "type": "address"
        },
        {
          "indexed": false,
          "internalType": "bool",
          "name": "approved",
          "type": "bool"
        }
      ],
      "name": "ApprovalForAll",
      "type": "event"
    },
    {
      "anonymous": false,
      "inputs": [
        {
          "indexed": true,
          "internalType": "address",
          "name": "from",
          "type": "address"
        },
        {
          "indexed": true,
          "internalType": "address",
          "name": "to",
          "type": "address"
        },
        {
          "indexed": true,
          "internalType": "uint256",
          "name": "tokenId",
          "type": "uint256"
        }
      ],
      "name": "Transfer",
      "type": "event"
    },
    {
      "inputs": [
        {
          "internalType": "address",
          "name": "to",
          "type": "address"
        },
        {
          "internalType": "uint256",
          "name": "tokenId",
          "type": "uint256"
        }
      ],
      "name": "approve",
      "outputs": [],
      "stateMutability": "nonpayable",
      "type": "function"
    },
    {
      "inputs": [
        {
          "internalType": "address",
          "name": "owner",
          "type": "address"
        }
      ],
      "name": "balanceOf",
      "outputs": [
        {
          "internalType": "uint256",
          "name": "",
          "type": "uint256"
        }
      ],
      "stateMutability": "view",
      "type": "function"
    },
    {
      "inputs": [
        {
          "internalType": "string",
          "name": "tokenURI",
          "type": "string"
        }
      ],
      "name": "createToken",
      "outputs": [
        {
          "internalType": "uint256",
          "name": "",
          "type": "uint256"
        }
      ],
      "stateMutability": "nonpayable",
      "type": "function"
    },
    {
      "inputs": [
        {
          "internalType": "uint256",
          "name": "tokenId",
          "type": "uint256"
        }
      ],
      "name": "getApproved",
      "outputs": [
        {
          "internalType": "address",
          "name": "",
          "type": "address"
        }
      ],
      "stateMutability": "view",
      "type": "function"
    },
    {
      "inputs": [
        {
          "internalType": "address",
          "name": "owner",
          "type": "address"
        },
        {
          "internalType": "address",
          "name": "operator",
          "type": "address"
        }
      ],
      "name": "isApprovedForAll",
      "outputs": [
        {
          "internalType": "bool",
          "name": "",
          "type": "bool"
        }
      ],
      "stateMutability": "view",
      "type": "function"
    },
    {
      "inputs": [],
      "name": "name",
      "outputs": [
        {
          "internalType": "string",
          "name": "",
          "type": "string"
        }
      ],
      "stateMutability": "view",
      "type": "function"
    },
    {
      "inputs": [
        {
          "internalType": "uint256",
          "name": "tokenId",
          "type": "uint256"
        }
      ],
      "name": "ownerOf",
      "outputs": [
        {
          "internalType": "address",
          "name": "",
          "type": "address"
        }
      ],
      "stateMutability": "view",
      "type": "function"
    },
    {
      "inputs": [
        {
          "internalType": "address",
          "name": "from",
          "type": "address"
        },
        {
          "internalType": "address",
          "name": "to",
          "type": "address"
        },
        {
          "internalType": "uint256",
          "name": "tokenId",
          "type": "uint256"
        }
      ],
      "name": "safeTransferFrom",
      "outputs": [],
      "stateMutability": "nonpayable",
      "type": "function"
    },
    {
      "inputs": [
        {
          "internalType": "address",
          "name": "from",
          "type": "address"
        },
        {
          "internalType": "address",
          "name": "to",
          "type": "address"
        },
        {
          "internalType": "uint256",
          "name": "tokenId",
          "type": "uint256"
        },
        {
          "internalType": "bytes",
          "name": "data",
          "type": "bytes"
        }
      ],
      "name": "safeTransferFrom",
      "outputs": [],
      "stateMutability": "nonpayable",
      "type": "function"
    },
    {
      "inputs": [
        {
          "internalType": "address",
          "name": "operator",
          "type": "address"
        },
        {
          "internalType": "bool",
          "name": "approved",
          "type": "bool"
        }
      ],
      "name": "setApprovalForAll",
      "outputs": [],
      "stateMutability": "nonpayable",
      "type": "function"
    },
    {
      "inputs": [
        {
          "internalType": "bytes4",
          "name": "interfaceId",
          "type": "bytes4"
        }
      ],
      "name": "supportsInterface",
      "outputs": [
        {
          "internalType": "bool",
          "name": "",
          "type": "bool"
        }
      ],
      "stateMutability": "view",
      "type": "function"
    },
    {
      "inputs": [],
      "name": "symbol",
      "outputs": [
        {
          "internalType": "string",
          "name": "",
          "type": "string"
        }
      ],
      "stateMutability": "view",
      "type": "function"
    },
    {
      "inputs": [
        {
          "internalType": "uint256",
          "name": "tokenId",
          "type": "uint256"
        }
      ],
      "name": "tokenURI",
      "outputs": [
        {
          "internalType": "string",
          "name": "",
          "type": "string"
        }
      ],
      "stateMutability": "view",
      "type": "function"
    },
    {
      "inputs": [
        {
          "internalType": "address",
          "name": "from",
          "type": "address"
        },
        {
          "internalType": "address",
          "name": "to",
          "type": "address"
        },
        {
          "internalType": "uint256",
          "name": "tokenId",
          "type": "uint256"
        }
      ],
      "name": "transferFrom",
      "outputs": [],
      "stateMutability": "nonpayable",
      "type": "function"
    }
  ],
  "bytecode": {
    "object": "0x60806040523480156200001157600080fd5b506040516200193d3803806200193d8339810160408190526200003491620000c3565b6040518060400160405280601081526020016f4f70656e53746f726520546f6b656e7360801b8152506040518060400160405280600381526020016213d4d560ea1b81525081600090816200008a91906200019a565b5060016200009982826200019a565b5050600880546001600160a01b0319166001600160a01b0393909316929092179091555062000266565b600060208284031215620000d657600080fd5b81516001600160a01b0381168114620000ee57600080fd5b9392505050565b634e487b7160e01b600052604160045260246000fd5b600181811c908216806200012057607f821691505b6020821081036200014157634e487b7160e01b600052602260045260246000fd5b50919050565b601f8211156200019557600081815260208120601f850160051c81016020861015620001705750805b601f850160051c820191505b8181101562000191578281556001016200017c565b5050505b505050565b81516001600160401b03811115620001b657620001b6620000f5565b620001ce81620001c784546200010b565b8462000147565b602080601f831160018114620002065760008415620001ed5750858301515b600019600386901b1c1916600185901b17855562000191565b600085815260208120601f198616915b82811015620002375788860151825594840194600190910190840162000216565b5085821015620002565787850151600019600388901b60f8161c191681555b5050505050600190811b01905550565b6116c780620002766000396000f3fe608060405234801561001057600080fd5b50600436106100ea5760003560e01c80636352211e1161008c578063a22cb46511610066578063a22cb465146101e1578063b88d4fde146101f4578063c87b56dd14610207578063e985e9c51461021a57600080fd5b80636352211e146101b357806370a08231146101c657806395d89b41146101d957600080fd5b8063095ea7b3116100c8578063095ea7b31461015757806323b872dd1461016c57806342842e0e1461017f57806345576f941461019257600080fd5b806301ffc9a7146100ef57806306fdde0314610117578063081812fc1461012c575b600080fd5b6101026100fd3660046110aa565b61022d565b60405190151581526020015b60405180910390f35b61011f61027f565b60405161010e9190611117565b61013f61013a36600461112a565b610311565b6040516001600160a01b03909116815260200161010e565b61016a61016536600461115f565b610338565b005b61016a61017a366004611189565b610452565b61016a61018d366004611189565b610483565b6101a56101a0366004611251565b61049e565b60405190815260200161010e565b61013f6101c136600461112a565b6104e6565b6101a56101d436600461129a565b610546565b61011f6105cc565b61016a6101ef3660046112b5565b6105db565b61016a6102023660046112f1565b6105ea565b61011f61021536600461112a565b610622565b61010261022836600461136d565b610732565b60006001600160e01b031982166380ac58cd60e01b148061025e57506001600160e01b03198216635b5e139f60e01b145b8061027957506301ffc9a760e01b6001600160e01b03198316145b92915050565b60606000805461028e906113a0565b80601f01602080910402602001604051908101604052809291908181526020018280546102ba906113a0565b80156103075780601f106102dc57610100808354040283529160200191610307565b820191906000526020600020905b8154815290600101906020018083116102ea57829003601f168201915b5050505050905090565b600061031c82610760565b506000908152600460205260409020546001600160a01b031690565b6000610343826104e6565b9050806001600160a01b0316836001600160a01b0316036103b55760405162461bcd60e51b815260206004820152602160248201527f4552433732313a20617070726f76616c20746f2063757272656e74206f776e656044820152603960f91b60648201526084015b60405180910390fd5b336001600160a01b03821614806103d157506103d18133610732565b6104435760405162461bcd60e51b815260206004820152603d60248201527f4552433732313a20617070726f76652063616c6c6572206973206e6f7420746f60448201527f6b656e206f776e6572206f7220617070726f76656420666f7220616c6c00000060648201526084016103ac565b61044d83836107c2565b505050565b61045c3382610830565b6104785760405162461bcd60e51b81526004016103ac906113da565b61044d83838361088e565b61044d838383604051806020016040528060008152506105ea565b60006104ae600780546001019055565b60006104b960075490565b90506104c533826109ff565b6104cf8184610b98565b600854610279906001600160a01b031660016105db565b6000818152600260205260408120546001600160a01b0316806102795760405162461bcd60e51b8152602060048201526018602482015277115490cdcc8c4e881a5b9d985b1a59081d1bdad95b88125160421b60448201526064016103ac565b60006001600160a01b0382166105b05760405162461bcd60e51b815260206004820152602960248201527f4552433732313a2061646472657373207a65726f206973206e6f7420612076616044820152683634b21037bbb732b960b91b60648201526084016103ac565b506001600160a01b031660009081526003602052604090205490565b60606001805461028e906113a0565b6105e6338383610c2b565b5050565b6105f43383610830565b6106105760405162461bcd60e51b81526004016103ac906113da565b61061c84848484610cf9565b50505050565b606061062d82610760565b60008281526006602052604081208054610646906113a0565b80601f0160208091040260200160405190810160405280929190818152602001828054610672906113a0565b80156106bf5780601f10610694576101008083540402835291602001916106bf565b820191906000526020600020905b8154815290600101906020018083116106a257829003601f168201915b5050505050905060006106dd60408051602081019091526000815290565b905080516000036106ef575092915050565b815115610721578082604051602001610709929190611427565b60405160208183030381529060405292505050919050565b61072a84610d2c565b949350505050565b6001600160a01b03918216600090815260056020908152604080832093909416825291909152205460ff1690565b6000818152600260205260409020546001600160a01b03166107bf5760405162461bcd60e51b8152602060048201526018602482015277115490cdcc8c4e881a5b9d985b1a59081d1bdad95b88125160421b60448201526064016103ac565b50565b600081815260046020526040902080546001600160a01b0319166001600160a01b03841690811790915581906107f7826104e6565b6001600160a01b03167f8c5be1e5ebec7d5bd14f71427d1e84f3dd0314c0f7b2291e5b200ac8c7c3b92560405160405180910390a45050565b60008061083c836104e6565b9050806001600160a01b0316846001600160a01b0316148061086357506108638185610732565b8061072a5750836001600160a01b031661087c84610311565b6001600160a01b031614949350505050565b826001600160a01b03166108a1826104e6565b6001600160a01b0316146108c75760405162461bcd60e51b81526004016103ac90611456565b6001600160a01b0382166109295760405162461bcd60e51b8152602060048201526024808201527f4552433732313a207472616e7366657220746f20746865207a65726f206164646044820152637265737360e01b60648201526084016103ac565b6109368383836001610da0565b826001600160a01b0316610949826104e6565b6001600160a01b03161461096f5760405162461bcd60e51b81526004016103ac90611456565b600081815260046020908152604080832080546001600160a01b03199081169091556001600160a01b0387811680865260038552838620805460001901905590871680865283862080546001019055868652600290945282852080549092168417909155905184937fddf252ad1be2c89b69c2b068fc378daa952ba7f163c4a11628f55a4df523b3ef91a4505050565b6001600160a01b038216610a555760405162461bcd60e51b815260206004820181905260248201527f4552433732313a206d696e7420746f20746865207a65726f206164647265737360448201526064016103ac565b6000818152600260205260409020546001600160a01b031615610aba5760405162461bcd60e51b815260206004820152601c60248201527f4552433732313a20746f6b656e20616c7265616479206d696e7465640000000060448201526064016103ac565b610ac8600083836001610da0565b6000818152600260205260409020546001600160a01b031615610b2d5760405162461bcd60e51b815260206004820152601c60248201527f4552433732313a20746f6b656e20616c7265616479206d696e7465640000000060448201526064016103ac565b6001600160a01b038216600081815260036020908152604080832080546001019055848352600290915280822080546001600160a01b0319168417905551839291907fddf252ad1be2c89b69c2b068fc378daa952ba7f163c4a11628f55a4df523b3ef908290a45050565b6000828152600260205260409020546001600160a01b0316610c135760405162461bcd60e51b815260206004820152602e60248201527f45524337323155524953746f726167653a2055524920736574206f66206e6f6e60448201526d32bc34b9ba32b73a103a37b5b2b760911b60648201526084016103ac565b600082815260066020526040902061044d82826114e9565b816001600160a01b0316836001600160a01b031603610c8c5760405162461bcd60e51b815260206004820152601960248201527f4552433732313a20617070726f766520746f2063616c6c65720000000000000060448201526064016103ac565b6001600160a01b03838116600081815260056020908152604080832094871680845294825291829020805460ff191686151590811790915591519182527f17307eab39ab6107e8899845ad3d59bd9653f200f220920489ca2b5937696c31910160405180910390a3505050565b610d0484848461088e565b610d1084848484610e28565b61061c5760405162461bcd60e51b81526004016103ac906115a9565b6060610d3782610760565b6000610d4e60408051602081019091526000815290565b90506000815111610d6e5760405180602001604052806000815250610d99565b80610d7884610f29565b604051602001610d89929190611427565b6040516020818303038152906040525b9392505050565b600181111561061c576001600160a01b03841615610de6576001600160a01b03841660009081526003602052604081208054839290610de0908490611611565b90915550505b6001600160a01b0383161561061c576001600160a01b03831660009081526003602052604081208054839290610e1d908490611624565b909155505050505050565b60006001600160a01b0384163b15610f1e57604051630a85bd0160e11b81526001600160a01b0385169063150b7a0290610e6c903390899088908890600401611637565b6020604051808303816000875af1925050508015610ea7575060408051601f3d908101601f19168201909252610ea491810190611674565b60015b610f04573d808015610ed5576040519150601f19603f3d011682016040523d82523d6000602084013e610eda565b606091505b508051600003610efc5760405162461bcd60e51b81526004016103ac906115a9565b805181602001fd5b6001600160e01b031916630a85bd0160e11b14905061072a565b506001949350505050565b60606000610f3683610fbc565b600101905060008167ffffffffffffffff811115610f5657610f566111c5565b6040519080825280601f01601f191660200182016040528015610f80576020820181803683370190505b5090508181016020015b600019016f181899199a1a9b1b9c1cb0b131b232b360811b600a86061a8153600a8504945084610f8a57509392505050565b60008072184f03e93ff9f4daa797ed6e38ed64bf6a1f0160401b8310610ffb5772184f03e93ff9f4daa797ed6e38ed64bf6a1f0160401b830492506040015b6d04ee2d6d415b85acef81000000008310611027576d04ee2d6d415b85acef8100000000830492506020015b662386f26fc10000831061104557662386f26fc10000830492506010015b6305f5e100831061105d576305f5e100830492506008015b612710831061107157612710830492506004015b60648310611083576064830492506002015b600a83106102795760010192915050565b6001600160e01b0319811681146107bf57600080fd5b6000602082840312156110bc57600080fd5b8135610d9981611094565b60005b838110156110e25781810151838201526020016110ca565b50506000910152565b600081518084526111038160208601602086016110c7565b601f01601f19169290920160200192915050565b602081526000610d9960208301846110eb565b60006020828403121561113c57600080fd5b5035919050565b80356001600160a01b038116811461115a57600080fd5b919050565b6000806040838503121561117257600080fd5b61117b83611143565b946020939093013593505050565b60008060006060848603121561119e57600080fd5b6111a784611143565b92506111b560208501611143565b9150604084013590509250925092565b634e487b7160e01b600052604160045260246000fd5b600067ffffffffffffffff808411156111f6576111f66111c5565b604051601f8501601f19908116603f0116810190828211818310171561121e5761121e6111c5565b8160405280935085815286868601111561123757600080fd5b858560208301376000602087830101525050509392505050565b60006020828403121561126357600080fd5b813567ffffffffffffffff81111561127a57600080fd5b8201601f8101841361128b57600080fd5b61072a848235602084016111db565b6000602082840312156112ac57600080fd5b610d9982611143565b600080604083850312156112c857600080fd5b6112d183611143565b9150602083013580151581146112e657600080fd5b809150509250929050565b6000806000806080858703121561130757600080fd5b61131085611143565b935061131e60208601611143565b925060408501359150606085013567ffffffffffffffff81111561134157600080fd5b8501601f8101871361135257600080fd5b611361878235602084016111db565b91505092959194509250565b6000806040838503121561138057600080fd5b61138983611143565b915061139760208401611143565b90509250929050565b600181811c908216806113b457607f821691505b6020821081036113d457634e487b7160e01b600052602260045260246000fd5b50919050565b6020808252602d908201527f4552433732313a2063616c6c6572206973206e6f7420746f6b656e206f776e6560408201526c1c881bdc88185c1c1c9bdd9959609a1b606082015260800190565b600083516114398184602088016110c7565b83519083019061144d8183602088016110c7565b01949350505050565b60208082526025908201527f4552433732313a207472616e736665722066726f6d20696e636f72726563742060408201526437bbb732b960d91b606082015260800190565b601f82111561044d57600081815260208120601f850160051c810160208610156114c25750805b601f850160051c820191505b818110156114e1578281556001016114ce565b505050505050565b815167ffffffffffffffff811115611503576115036111c5565b6115178161151184546113a0565b8461149b565b602080601f83116001811461154c57600084156115345750858301515b600019600386901b1c1916600185901b1785556114e1565b600085815260208120601f198616915b8281101561157b5788860151825594840194600190910190840161155c565b50858210156115995787850151600019600388901b60f8161c191681555b5050505050600190811b01905550565b60208082526032908201527f4552433732313a207472616e7366657220746f206e6f6e20455243373231526560408201527131b2b4bb32b91034b6b83632b6b2b73a32b960711b606082015260800190565b634e487b7160e01b600052601160045260246000fd5b81810381811115610279576102796115fb565b80820180821115610279576102796115fb565b6001600160a01b038581168252841660208201526040810183905260806060820181905260009061166a908301846110eb565b9695505050505050565b60006020828403121561168657600080fd5b8151610d998161109456fea2646970667358221220f071b1666e9b266570bc09a082c97d3b11a542d40b38e9a3838474c903df163964736f6c63430008110033",
    "linkReferences": {}
  },
  "methodIdentifiers": {
    "approve(address,uint256)": "095ea7b3",
    "balanceOf(address)": "70a08231",
    "createToken(string)": "45576f94",
    "getApproved(uint256)": "081812fc",
    "isApprovedForAll(address,address)": "e985e9c5",
    "name()": "06fdde03",
    "ownerOf(uint256)": "6352211e",
    "safeTransferFrom(address,address,uint256)": "42842e0e",
    "safeTransferFrom(address,address,uint256,bytes)": "b88d4fde",
    "setApprovalForAll(address,bool)": "a22cb465",
    "supportsInterface(bytes4)": "01ffc9a7",
    "symbol()": "95d89b41",
    "tokenURI(uint256)": "c87b56dd",
    "transferFrom(address,address,uint256)": "23b872dd"
  },
  "id": 1
}