{
  "abi": [
    {
      "inputs": [
        {
          "internalType": "string",
          "name": "_greeting",
          "type": "string"
        }
      ],
      "stateMutability": "nonpayable",
      "type": "constructor"
    },
    {
      "inputs": [],
      "name": "greet",
      "outputs": [
        {
          "internalType": "string",
          "name": "",
          "type": "string"
        }
      ],
      "stateMutability": "view",
      "type": "function"
    },
    {
      "inputs": [],
      "name": "owner",
      "outputs": [
        {
          "internalType": "address",
          "name": "",
          "type": "address"
        }
      ],
      "stateMutability": "view",
      "type": "function"
    },
    {
      "inputs": [
        {
          "internalType": "string",
          "name": "_greeting",
          "type": "string"
        }
      ],
      "name": "updateGreeting",
      "outputs": [],
      "stateMutability": "payable",
      "type": "function"
    },
    {
      "inputs": [],
      "name": "value",
      "outputs": [
        {
          "internalType": "uint256",
          "name": "",
          "type": "uint256"
        }
      ],
      "stateMutability": "view",
      "type": "function"
    },
    {
      "inputs": [],
      "name": "version",
      "outputs": [
        {
          "internalType": "uint256",
          "name": "",
          "type": "uint256"
        }
      ],
      "stateMutability": "view",
      "type": "function"
    }
  ],
  "bytecode": {
    "object": "0x60806040526000600155600480546001600160a01b03191673b4fbf271143f4fbf7b91a5ded31805e42b2208d617905534801561003b57600080fd5b5060405161072d38038061072d83398101604081905261005a91610083565b600061006682826101d5565b5050610294565b634e487b7160e01b600052604160045260246000fd5b6000602080838503121561009657600080fd5b82516001600160401b03808211156100ad57600080fd5b818501915085601f8301126100c157600080fd5b8151818111156100d3576100d361006d565b604051601f8201601f19908116603f011681019083821181831017156100fb576100fb61006d565b81604052828152888684870101111561011357600080fd5b600093505b828410156101355784840186015181850187015292850192610118565b600086848301015280965050505050505092915050565b600181811c9082168061016057607f821691505b60208210810361018057634e487b7160e01b600052602260045260246000fd5b50919050565b601f8211156101d057600081815260208120601f850160051c810160208610156101ad5750805b601f850160051c820191505b818110156101cc578281556001016101b9565b5050505b505050565b81516001600160401b038111156101ee576101ee61006d565b610202816101fc845461014c565b84610186565b602080601f831160018114610237576000841561021f5750858301515b600019600386901b1c1916600185901b1785556101cc565b600085815260208120601f198616915b8281101561026657888601518255948401946001909101908401610247565b50858210156102845787850151600019600388901b60f8161c191681555b5050505050600190811b01905550565b61048a806102a36000396000f3fe60806040526004361061004a5760003560e01c80632867cc441461004f5780633fa4f2451461006457806354fd4d501461008d5780638da5cb5b146100a3578063cfae3217146100db575b600080fd5b61006261005d3660046101e5565b6100fd565b005b34801561007057600080fd5b5061007a60035481565b6040519081526020015b60405180910390f35b34801561009957600080fd5b5061007a60015481565b3480156100af57600080fd5b506002546100c3906001600160a01b031681565b6040516001600160a01b039091168152602001610084565b3480156100e757600080fd5b506100f061013d565b6040516100849190610296565b600280546001600160a01b03191633179055346003556001805481906000906101279083906102e4565b90915550600090506101398282610394565b5050565b60606000805461014c9061030b565b80601f01602080910402602001604051908101604052809291908181526020018280546101789061030b565b80156101c55780601f1061019a576101008083540402835291602001916101c5565b820191906000526020600020905b8154815290600101906020018083116101a857829003601f168201915b5050505050905090565b634e487b7160e01b600052604160045260246000fd5b6000602082840312156101f757600080fd5b813567ffffffffffffffff8082111561020f57600080fd5b818401915084601f83011261022357600080fd5b813581811115610235576102356101cf565b604051601f8201601f19908116603f0116810190838211818310171561025d5761025d6101cf565b8160405282815287602084870101111561027657600080fd5b826020860160208301376000928101602001929092525095945050505050565b600060208083528351808285015260005b818110156102c3578581018301518582016040015282016102a7565b506000604082860101526040601f19601f8301168501019250505092915050565b8082018082111561030557634e487b7160e01b600052601160045260246000fd5b92915050565b600181811c9082168061031f57607f821691505b60208210810361033f57634e487b7160e01b600052602260045260246000fd5b50919050565b601f82111561038f57600081815260208120601f850160051c8101602086101561036c5750805b601f850160051c820191505b8181101561038b57828155600101610378565b5050505b505050565b815167ffffffffffffffff8111156103ae576103ae6101cf565b6103c2816103bc845461030b565b84610345565b602080601f8311600181146103f757600084156103df5750858301515b600019600386901b1c1916600185901b17855561038b565b600085815260208120601f198616915b8281101561042657888601518255948401946001909101908401610407565b50858210156104445787850151600019600388901b60f8161c191681555b5050505050600190811b0190555056fea26469706673582212207091a428b3c7d7e4a81565d5fa25442a27d7e40154774d14f2d9e5e9865d362c64736f6c63430008110033",
    "linkReferences": {}
  },
  "methodIdentifiers": {
    "greet()": "cfae3217",
    "owner()": "8da5cb5b",
    "updateGreeting(string)": "2867cc44",
    "value()": "3fa4f245",
    "version()": "54fd4d50"
  },
  "id": 0
}