{
  "abi": [
    {
      "inputs": [],
      "stateMutability": "nonpayable",
      "type": "constructor"
    },
    {
      "anonymous": false,
      "inputs": [
        {
          "indexed": true,
          "internalType": "uint256",
          "name": "itemId",
          "type": "uint256"
        },
        {
          "indexed": true,
          "internalType": "address",
          "name": "nftContract",
          "type": "address"
        },
        {
          "indexed": true,
          "internalType": "uint256",
          "name": "tokenId",
          "type": "uint256"
        },
        {
          "indexed": false,
          "internalType": "uint256",
          "name": "price",
          "type": "uint256"
        },
        {
          "indexed": false,
          "internalType": "address",
          "name": "creator",
          "type": "address"
        },
        {
          "indexed": false,
          "internalType": "address",
          "name": "owner",
          "type": "address"
        }
      ],
      "name": "BoughtMarketItem",
      "type": "event"
    },
    {
      "anonymous": false,
      "inputs": [
        {
          "indexed": true,
          "internalType": "uint256",
          "name": "itemId",
          "type": "uint256"
        },
        {
          "indexed": true,
          "internalType": "address",
          "name": "nftContract",
          "type": "address"
        },
        {
          "indexed": false,
          "internalType": "address",
          "name": "donationAddress",
          "type": "address"
        },
        {
          "indexed": false,
          "internalType": "uint256",
          "name": "donationPer",
          "type": "uint256"
        },
        {
          "indexed": false,
          "internalType": "uint256",
          "name": "royaltyPer",
          "type": "uint256"
        },
        {
          "indexed": true,
          "internalType": "uint256",
          "name": "tokenId",
          "type": "uint256"
        },
        {
          "indexed": false,
          "internalType": "uint256",
          "name": "minPrice",
          "type": "uint256"
        },
        {
          "indexed": false,
          "internalType": "address",
          "name": "creator",
          "type": "address"
        },
        {
          "indexed": false,
          "internalType": "address",
          "name": "owner",
          "type": "address"
        },
        {
          "indexed": false,
          "internalType": "uint256",
          "name": "price",
          "type": "uint256"
        },
        {
          "indexed": false,
          "internalType": "bool",
          "name": "isActive",
          "type": "bool"
        }
      ],
      "name": "MarketItemCreated",
      "type": "event"
    },
    {
      "anonymous": false,
      "inputs": [
        {
          "indexed": true,
          "internalType": "bytes32",
          "name": "role",
          "type": "bytes32"
        },
        {
          "indexed": true,
          "internalType": "bytes32",
          "name": "previousAdminRole",
          "type": "bytes32"
        },
        {
          "indexed": true,
          "internalType": "bytes32",
          "name": "newAdminRole",
          "type": "bytes32"
        }
      ],
      "name": "RoleAdminChanged",
      "type": "event"
    },
    {
      "anonymous": false,
      "inputs": [
        {
          "indexed": true,
          "internalType": "bytes32",
          "name": "role",
          "type": "bytes32"
        },
        {
          "indexed": true,
          "internalType": "address",
          "name": "account",
          "type": "address"
        },
        {
          "indexed": true,
          "internalType": "address",
          "name": "sender",
          "type": "address"
        }
      ],
      "name": "RoleGranted",
      "type": "event"
    },
    {
      "anonymous": false,
      "inputs": [
        {
          "indexed": true,
          "internalType": "bytes32",
          "name": "role",
          "type": "bytes32"
        },
        {
          "indexed": true,
          "internalType": "address",
          "name": "account",
          "type": "address"
        },
        {
          "indexed": true,
          "internalType": "address",
          "name": "sender",
          "type": "address"
        }
      ],
      "name": "RoleRevoked",
      "type": "event"
    },
    {
      "inputs": [],
      "name": "DEFAULT_ADMIN_ROLE",
      "outputs": [
        {
          "internalType": "bytes32",
          "name": "",
          "type": "bytes32"
        }
      ],
      "stateMutability": "view",
      "type": "function"
    },
    {
      "inputs": [],
      "name": "MEMBER_ROLE",
      "outputs": [
        {
          "internalType": "bytes32",
          "name": "",
          "type": "bytes32"
        }
      ],
      "stateMutability": "view",
      "type": "function"
    },
    {
      "inputs": [
        {
          "internalType": "address",
          "name": "account",
          "type": "address"
        }
      ],
      "name": "addMember",
      "outputs": [],
      "stateMutability": "nonpayable",
      "type": "function"
    },
    {
      "inputs": [
        {
          "internalType": "address",
          "name": "nftContract",
          "type": "address"
        },
        {
          "internalType": "address",
          "name": "donationAdress",
          "type": "address"
        },
        {
          "internalType": "uint256",
          "name": "donationPer",
          "type": "uint256"
        },
        {
          "internalType": "uint256",
          "name": "royaltyPer",
          "type": "uint256"
        },
        {
          "internalType": "uint256",
          "name": "tokenId",
          "type": "uint256"
        },
        {
          "internalType": "uint256",
          "name": "minPrice",
          "type": "uint256"
        },
        {
          "internalType": "uint256",
          "name": "price",
          "type": "uint256"
        },
        {
          "internalType": "bool",
          "name": "isActive",
          "type": "bool"
        }
      ],
      "name": "createMarketItem",
      "outputs": [],
      "stateMutability": "nonpayable",
      "type": "function"
    },
    {
      "inputs": [
        {
          "internalType": "address",
          "name": "nftContract",
          "type": "address"
        },
        {
          "internalType": "uint256",
          "name": "itemId",
          "type": "uint256"
        }
      ],
      "name": "createMarketSale",
      "outputs": [],
      "stateMutability": "payable",
      "type": "function"
    },
    {
      "inputs": [],
      "name": "feePercent",
      "outputs": [
        {
          "internalType": "uint256",
          "name": "",
          "type": "uint256"
        }
      ],
      "stateMutability": "view",
      "type": "function"
    },
    {
      "inputs": [],
      "name": "fetchCreateNFTs",
      "outputs": [
        {
          "components": [
            {
              "internalType": "uint256",
              "name": "itemId",
              "type": "uint256"
            },
            {
              "internalType": "address",
              "name": "nftContract",
              "type": "address"
            },
            {
              "internalType": "address",
              "name": "donationAddress",
              "type": "address"
            },
            {
              "internalType": "uint256",
              "name": "donationPer",
              "type": "uint256"
            },
            {
              "internalType": "uint256",
              "name": "royaltyPer",
              "type": "uint256"
            },
            {
              "internalType": "uint256",
              "name": "tokenId",
              "type": "uint256"
            },
            {
              "internalType": "uint256",
              "name": "minPrice",
              "type": "uint256"
            },
            {
              "internalType": "address",
              "name": "creator",
              "type": "address"
            },
            {
              "internalType": "address",
              "name": "owner",
              "type": "address"
            },
            {
              "internalType": "uint256",
              "name": "price",
              "type": "uint256"
            },
            {
              "internalType": "bool",
              "name": "isActive",
              "type": "bool"
            }
          ],
          "internalType": "struct NFTMarket.MarketItem[]",
          "name": "",
          "type": "tuple[]"
        }
      ],
      "stateMutability": "view",
      "type": "function"
    },
    {
      "inputs": [],
      "name": "fetchPurchasedNFTs",
      "outputs": [
        {
          "components": [
            {
              "internalType": "uint256",
              "name": "itemId",
              "type": "uint256"
            },
            {
              "internalType": "address",
              "name": "nftContract",
              "type": "address"
            },
            {
              "internalType": "address",
              "name": "donationAddress",
              "type": "address"
            },
            {
              "internalType": "uint256",
              "name": "donationPer",
              "type": "uint256"
            },
            {
              "internalType": "uint256",
              "name": "royaltyPer",
              "type": "uint256"
            },
            {
              "internalType": "uint256",
              "name": "tokenId",
              "type": "uint256"
            },
            {
              "internalType": "uint256",
              "name": "minPrice",
              "type": "uint256"
            },
            {
              "internalType": "address",
              "name": "creator",
              "type": "address"
            },
            {
              "internalType": "address",
              "name": "owner",
              "type": "address"
            },
            {
              "internalType": "uint256",
              "name": "price",
              "type": "uint256"
            },
            {
              "internalType": "bool",
              "name": "isActive",
              "type": "bool"
            }
          ],
          "internalType": "struct NFTMarket.MarketItem[]",
          "name": "",
          "type": "tuple[]"
        }
      ],
      "stateMutability": "view",
      "type": "function"
    },
    {
      "inputs": [],
      "name": "getMarketItems",
      "outputs": [
        {
          "components": [
            {
              "internalType": "uint256",
              "name": "itemId",
              "type": "uint256"
            },
            {
              "internalType": "address",
              "name": "nftContract",
              "type": "address"
            },
            {
              "internalType": "address",
              "name": "donationAddress",
              "type": "address"
            },
            {
              "internalType": "uint256",
              "name": "donationPer",
              "type": "uint256"
            },
            {
              "internalType": "uint256",
              "name": "royaltyPer",
              "type": "uint256"
            },
            {
              "internalType": "uint256",
              "name": "tokenId",
              "type": "uint256"
            },
            {
              "internalType": "uint256",
              "name": "minPrice",
              "type": "uint256"
            },
            {
              "internalType": "address",
              "name": "creator",
              "type": "address"
            },
            {
              "internalType": "address",
              "name": "owner",
              "type": "address"
            },
            {
              "internalType": "uint256",
              "name": "price",
              "type": "uint256"
            },
            {
              "internalType": "bool",
              "name": "isActive",
              "type": "bool"
            }
          ],
          "internalType": "struct NFTMarket.MarketItem[]",
          "name": "",
          "type": "tuple[]"
        }
      ],
      "stateMutability": "view",
      "type": "function"
    },
    {
      "inputs": [
        {
          "internalType": "bytes32",
          "name": "role",
          "type": "bytes32"
        }
      ],
      "name": "getRoleAdmin",
      "outputs": [
        {
          "internalType": "bytes32",
          "name": "",
          "type": "bytes32"
        }
      ],
      "stateMutability": "view",
      "type": "function"
    },
    {
      "inputs": [
        {
          "internalType": "bytes32",
          "name": "role",
          "type": "bytes32"
        },
        {
          "internalType": "address",
          "name": "account",
          "type": "address"
        }
      ],
      "name": "grantRole",
      "outputs": [],
      "stateMutability": "nonpayable",
      "type": "function"
    },
    {
      "inputs": [
        {
          "internalType": "bytes32",
          "name": "role",
          "type": "bytes32"
        },
        {
          "internalType": "address",
          "name": "account",
          "type": "address"
        }
      ],
      "name": "hasRole",
      "outputs": [
        {
          "internalType": "bool",
          "name": "",
          "type": "bool"
        }
      ],
      "stateMutability": "view",
      "type": "function"
    },
    {
      "inputs": [
        {
          "internalType": "uint256",
          "name": "",
          "type": "uint256"
        }
      ],
      "name": "idToMarketItem",
      "outputs": [
        {
          "internalType": "uint256",
          "name": "itemId",
          "type": "uint256"
        },
        {
          "internalType": "address",
          "name": "nftContract",
          "type": "address"
        },
        {
          "internalType": "address",
          "name": "donationAddress",
          "type": "address"
        },
        {
          "internalType": "uint256",
          "name": "donationPer",
          "type": "uint256"
        },
        {
          "internalType": "uint256",
          "name": "royaltyPer",
          "type": "uint256"
        },
        {
          "internalType": "uint256",
          "name": "tokenId",
          "type": "uint256"
        },
        {
          "internalType": "uint256",
          "name": "minPrice",
          "type": "uint256"
        },
        {
          "internalType": "address",
          "name": "creator",
          "type": "address"
        },
        {
          "internalType": "address",
          "name": "owner",
          "type": "address"
        },
        {
          "internalType": "uint256",
          "name": "price",
          "type": "uint256"
        },
        {
          "internalType": "bool",
          "name": "isActive",
          "type": "bool"
        }
      ],
      "stateMutability": "view",
      "type": "function"
    },
    {
      "inputs": [
        {
          "internalType": "address",
          "name": "account",
          "type": "address"
        }
      ],
      "name": "isMember",
      "outputs": [
        {
          "internalType": "bool",
          "name": "",
          "type": "bool"
        }
      ],
      "stateMutability": "view",
      "type": "function"
    },
    {
      "inputs": [
        {
          "internalType": "address",
          "name": "nftContract",
          "type": "address"
        },
        {
          "internalType": "address",
          "name": "_donationAdress",
          "type": "address"
        },
        {
          "internalType": "uint256",
          "name": "_donationPer",
          "type": "uint256"
        },
        {
          "internalType": "uint256",
          "name": "_minPrice",
          "type": "uint256"
        },
        {
          "internalType": "uint256",
          "name": "_itemId",
          "type": "uint256"
        },
        {
          "internalType": "uint256",
          "name": "_price",
          "type": "uint256"
        }
      ],
      "name": "listItem",
      "outputs": [],
      "stateMutability": "nonpayable",
      "type": "function"
    },
    {
      "inputs": [
        {
          "internalType": "address",
          "name": "nftContract",
          "type": "address"
        },
        {
          "internalType": "uint256",
          "name": "itemId",
          "type": "uint256"
        },
        {
          "internalType": "uint256",
          "name": "_nftPrice",
          "type": "uint256"
        }
      ],
      "name": "offerMarketSale",
      "outputs": [],
      "stateMutability": "payable",
      "type": "function"
    },
    {
      "inputs": [],
      "name": "owner",
      "outputs": [
        {
          "internalType": "address",
          "name": "",
          "type": "address"
        }
      ],
      "stateMutability": "view",
      "type": "function"
    },
    {
      "inputs": [
        {
          "internalType": "address",
          "name": "nftContract",
          "type": "address"
        },
        {
          "internalType": "uint256",
          "name": "price",
          "type": "uint256"
        },
        {
          "internalType": "uint256",
          "name": "feeCommision",
          "type": "uint256"
        },
        {
          "internalType": "uint256",
          "name": "itemId",
          "type": "uint256"
        }
      ],
      "name": "proceedToTransfer",
      "outputs": [],
      "stateMutability": "payable",
      "type": "function"
    },
    {
      "inputs": [
        {
          "internalType": "bytes32",
          "name": "role",
          "type": "bytes32"
        },
        {
          "internalType": "address",
          "name": "account",
          "type": "address"
        }
      ],
      "name": "renounceRole",
      "outputs": [],
      "stateMutability": "nonpayable",
      "type": "function"
    },
    {
      "inputs": [
        {
          "internalType": "address",
          "name": "account",
          "type": "address"
        }
      ],
      "name": "revokeMember",
      "outputs": [],
      "stateMutability": "nonpayable",
      "type": "function"
    },
    {
      "inputs": [
        {
          "internalType": "bytes32",
          "name": "role",
          "type": "bytes32"
        },
        {
          "internalType": "address",
          "name": "account",
          "type": "address"
        }
      ],
      "name": "revokeRole",
      "outputs": [],
      "stateMutability": "nonpayable",
      "type": "function"
    },
    {
      "inputs": [
        {
          "internalType": "uint256",
          "name": "_feePercent",
          "type": "uint256"
        }
      ],
      "name": "setFees",
      "outputs": [],
      "stateMutability": "nonpayable",
      "type": "function"
    },
    {
      "inputs": [
        {
          "internalType": "bytes4",
          "name": "interfaceId",
          "type": "bytes4"
        }
      ],
      "name": "supportsInterface",
      "outputs": [
        {
          "internalType": "bool",
          "name": "",
          "type": "bool"
        }
      ],
      "stateMutability": "view",
      "type": "function"
    },
    {
      "inputs": [
        {
          "internalType": "uint256",
          "name": "_itemId",
          "type": "uint256"
        }
      ],
      "name": "unlistItem",
      "outputs": [],
      "stateMutability": "nonpayable",
      "type": "function"
    }
  ],
  "bytecode": {
    "object": "0x60806040523480156200001157600080fd5b506001600055600480546001600160a01b0319163390811790915562000059907f829b824e2329e205435d941c9f13baf578548505283d29261236d8e6596d46369062000064565b60c8600555620000fc565b62000070828262000074565b5050565b60008281526001602090815260408083206001600160a01b038516845290915290205460ff16620000705760008281526001602081815260408084206001600160a01b0386168086529252808420805460ff19169093179092559051339285917f2f8788117e7eff1d82e926ec794901d17c78024a50270940304540a733656f0d9190a45050565b61217a806200010c6000396000f3fe60806040526004361061014b5760003560e01c80638da5cb5b116100b6578063c23b139e1161006f578063c23b139e146103a8578063ca6d56dc146103bb578063d547741f146103db578063ddfad245146103fb578063e61a70c01461041b578063ee6ba2341461050c57600080fd5b80638da5cb5b146102e65780638ddee9e71461031e57806391d1485414610331578063a10f469e14610351578063a217fddf14610373578063a230c5241461038857600080fd5b80633d137715116101085780633d137715146102485780633d18678e1461025b5780635a599da81461027b5780637cbad1461461029b5780637fd6f15c146102b05780638adf23b9146102c657600080fd5b806301ffc9a714610150578063248a9ca31461018557806329aa3a42146101c45780632f2ff15d146101e657806336568abe146102085780633ab0c21814610228575b600080fd5b34801561015c57600080fd5b5061017061016b366004611c37565b610521565b60405190151581526020015b60405180910390f35b34801561019157600080fd5b506101b66101a0366004611c61565b6000908152600160208190526040909120015490565b60405190815260200161017c565b3480156101d057600080fd5b506101d9610558565b60405161017c9190611c7a565b3480156101f257600080fd5b50610206610201366004611d51565b610724565b005b34801561021457600080fd5b50610206610223366004611d51565b61074f565b34801561023457600080fd5b50610206610243366004611d8f565b6107d2565b610206610256366004611e0b565b610afe565b34801561026757600080fd5b50610206610276366004611c61565b610bb1565b34801561028757600080fd5b50610206610296366004611c61565b610bdb565b3480156102a757600080fd5b506101d9610cd3565b3480156102bc57600080fd5b506101b660055481565b3480156102d257600080fd5b506102066102e1366004611e40565b610edc565b3480156102f257600080fd5b50600454610306906001600160a01b031681565b6040516001600160a01b03909116815260200161017c565b61020661032c366004611e5d565b610f19565b34801561033d57600080fd5b5061017061034c366004611d51565b6112ea565b34801561035d57600080fd5b506101b660008051602061212583398151915281565b34801561037f57600080fd5b506101b6600081565b34801561039457600080fd5b506101706103a3366004611e40565b611315565b6102066103b6366004611e98565b61132f565b3480156103c757600080fd5b506102066103d6366004611e40565b6113ed565b3480156103e757600080fd5b506102066103f6366004611d51565b61142a565b34801561040757600080fd5b50610206610416366004611ec4565b611450565b34801561042757600080fd5b506104a4610436366004611c61565b600660208190526000918252604090912080546001820154600283015460038401546004850154600586015496860154600787015460088801546009890154600a9099015497996001600160a01b039788169996881698959794969095939492831693929091169160ff168b565b604080519b8c526001600160a01b039a8b1660208d0152988a16988b019890985260608a0196909652608089019490945260a088019290925260c0870152841660e086015290921661010084015261012083019190915215156101408201526101600161017c565b34801561051857600080fd5b506101d9611648565b60006001600160e01b03198216637965db0b60e01b148061055257506301ffc9a760e01b6001600160e01b03198316145b92915050565b6060600061056560025490565b9050600061057260035490565b60025461057f9190611f33565b90506000808267ffffffffffffffff81111561059d5761059d611f46565b6040519080825280602002602001820160405280156105d657816020015b6105c3611bb7565b8152602001906001900390816105bb5790505b50905060005b8481101561071b5760006006816105f4846001611f5c565b81526020810191909152604001600020600801546001600160a01b031603610709576000600681610626846001611f5c565b815260208082019290925260409081016000908120548082526006808552918390208351610160810185528154815260018201546001600160a01b039081169682019690965260028201548616948101949094526003810154606085015260048101546080850152600581015460a08501529182015460c08401526007820154841660e084015260088201549093166101008301526009810154610120830152600a81015460ff1615156101408301528551929350918590879081106106ee576106ee611f6f565b6020908102919091010152610704600186611f5c565b945050505b8061071381611f85565b9150506105dc565b50949350505050565b6000828152600160208190526040909120015461074081611851565b61074a838361185b565b505050565b6001600160a01b03811633146107c45760405162461bcd60e51b815260206004820152602f60248201527f416363657373436f6e74726f6c3a2063616e206f6e6c792072656e6f756e636560448201526e103937b632b9903337b91039b2b63360891b60648201526084015b60405180910390fd5b6107ce82826118c6565b5050565b6107da61192d565b6040516331a9108f60e11b81526004810185905233906001600160a01b038a1690636352211e90602401602060405180830381865afa158015610821573d6000803e3d6000fd5b505050506040513d601f19601f820116820180604052508101906108459190611f9e565b6001600160a01b03161461089b5760405162461bcd60e51b815260206004820152601e60248201527f53656e646572206973206e6f7420746865206f776e6572206f66204e4654000060448201526064016107bb565b6108a9600280546001019055565b60006108b460025490565b90506040518061016001604052808281526020018a6001600160a01b03168152602001896001600160a01b03168152602001888152602001878152602001868152602001858152602001336001600160a01b03168152602001336001600160a01b03168152602001848152602001831515815250600660008381526020019081526020016000206000820151816000015560208201518160010160006101000a8154816001600160a01b0302191690836001600160a01b0316021790555060408201518160020160006101000a8154816001600160a01b0302191690836001600160a01b03160217905550606082015181600301556080820151816004015560a0820151816005015560c0820151816006015560e08201518160070160006101000a8154816001600160a01b0302191690836001600160a01b031602179055506101008201518160080160006101000a8154816001600160a01b0302191690836001600160a01b03160217905550610120820151816009015561014082015181600a0160006101000a81548160ff02191690831515021790555090505084896001600160a01b0316827f385485901d61f32454f94f9b07b74d02f7b33e87e10ddeb3e50e06ac7994c39e8b8b8b8a33338c8c604051610ae19897969594939291906001600160a01b039889168152602081019790975260408701959095526060860193909352908516608085015290931660a083015260c082019290925290151560e08201526101000190565b60405180910390a450610af46001600055565b5050505050505050565b610b0661192d565b600082815260066020819052604082200154600554909190610b29908490611986565b90506000610b378234611f33565b905082811015610b985760405162461bcd60e51b815260206004820152602660248201527f50726963652073686f756c642062652067726561746572207468616e206d696e60448201526520707269636560d01b60648201526084016107bb565b610ba486858488610f19565b50505061074a6001600055565b610bba33611315565b610bd65760405162461bcd60e51b81526004016107bb90611fbb565b600555565b610be361192d565b6000818152600660205260409020600a015460ff16610c445760405162461bcd60e51b815260206004820152601a60248201527f4974656d20697320616c7265616479206e6f74204c697374656400000000000060448201526064016107bb565b6000818152600660205260409020600801546001600160a01b03163314610cad5760405162461bcd60e51b815260206004820152601e60248201527f4f6e6c79206f776e65722063616e204c697374207468696572206974656d000060448201526064016107bb565b6000818152600660205260409020600a01805460ff19169055610cd06001600055565b50565b60606000610ce060025490565b905060008060005b83811015610d42573360066000610d00846001611f5c565b81526020810191909152604001600020600701546001600160a01b031603610d3057610d2d600184611f5c565b92505b80610d3a81611f85565b915050610ce8565b5060008267ffffffffffffffff811115610d5e57610d5e611f46565b604051908082528060200260200182016040528015610d9757816020015b610d84611bb7565b815260200190600190039081610d7c5790505b50905060005b8481101561071b573360066000610db5846001611f5c565b81526020810191909152604001600020600701546001600160a01b031603610eca576000600681610de7846001611f5c565b815260208082019290925260409081016000908120548082526006808552918390208351610160810185528154815260018201546001600160a01b039081169682019690965260028201548616948101949094526003810154606085015260048101546080850152600581015460a08501529182015460c08401526007820154841660e084015260088201549093166101008301526009810154610120830152600a81015460ff161515610140830152855192935091859087908110610eaf57610eaf611f6f565b6020908102919091010152610ec5600186611f5c565b945050505b80610ed481611f85565b915050610d9d565b610ee533611315565b610f015760405162461bcd60e51b81526004016107bb90611fbb565b610cd0600080516020612125833981519152826118c6565b6000818152600660205260409020600a015460ff16610f6f5760405162461bcd60e51b8152602060048201526012602482015271125d195b481a5cc81b9bdd081b1a5cdd195960721b60448201526064016107bb565b600081815260066020526040902060080154336001600160a01b0390911603610fda5760405162461bcd60e51b815260206004820152601760248201527f53656e646572206973206e6f7420746865206f776e657200000000000000000060448201526064016107bb565b6000610fe68385611f33565b60008381526006602052604090206002808201546005909201546004549394506001600160a01b0392831693909216906108fc90611025908890611feb565b6040518115909202916000818181858888f1935050505015801561104d573d6000803e3d6000fd5b506001600160a01b03821615801590611076575060008481526006602052604090206003015415155b156110e057600084815260066020526040812060030154611098908890611986565b6040519091506001600160a01b0384169082156108fc029083906000818181858888f193505050501580156110d1573d6000803e3d6000fd5b506110dc8185611f33565b9350505b600084815260066020526040902060088101546007909101546001600160a01b03908116911614801590611124575060008481526006602052604090206004015415155b1561119e57600084815260066020526040812060040154611146908890611986565b6000868152600660205260408082206007015490519293506001600160a01b03169183156108fc0291849190818181858888f1935050505015801561118f573d6000803e3d6000fd5b5061119a8185611f33565b9350505b6000848152600660205260408082206008015490516001600160a01b039091169185156108fc02918691818181858888f193505050501580156111e5573d6000803e3d6000fd5b50600084815260066020526040908190206008015490516323b872dd60e01b81526001600160a01b03918216600482015233602482015260448101839052908816906323b872dd90606401600060405180830381600087803b15801561124a57600080fd5b505af115801561125e573d6000803e3d6000fd5b505050600085815260066020908152604091829020600a8101805460ff191690556008018054336001600160a01b0319909116811790915582518a81529182018190528183015290518392506001600160a01b038a169187917fdbb4d5ec4127b942b3f194128757813437bbd853519ecb9800d246003b5f0c4d9181900360600190a450505050505050565b60009182526001602090815260408084206001600160a01b0393909316845291905290205460ff1690565b6000610552600080516020612125833981519152836112ea565b61133761192d565b60008181526006602052604081206009015460055490919061135a908390611986565b905060006113688284611f5c565b9050803410156113d45760405162461bcd60e51b815260206004820152603160248201527f506c65617365206d616b652074686520707269636520746f2062652073616d65604482015270206173206c697374696e6720707269636560781b60648201526084016107bb565b6113e085848487610f19565b5050506107ce6001600055565b6113f633611315565b6114125760405162461bcd60e51b81526004016107bb90611fbb565b610cd0600080516020612125833981519152826119a6565b6000828152600160208190526040909120015461144681611851565b61074a83836118c6565b61145861192d565b6000828152600660205260409081902060080154905163e985e9c560e01b81526001600160a01b0391821660048201523060248201529087169063e985e9c590604401602060405180830381865afa1580156114b8573d6000803e3d6000fd5b505050506040513d601f19601f820116820180604052508101906114dc9190612002565b6115205760405162461bcd60e51b815260206004820152601560248201527420b8383937bb30b61034b9903737ba1033b4bb32b760591b60448201526064016107bb565b6000828152600660205260409020600a015460ff161561157b5760405162461bcd60e51b8152602060048201526016602482015275125d195b481a5cc8185b1c9958591e48131a5cdd195960521b60448201526064016107bb565b6000828152600660205260409020600801546001600160a01b031633146115e45760405162461bcd60e51b815260206004820152601e60248201527f4f6e6c79206f776e65722063616e204c697374207468696572206974656d000060448201526064016107bb565b600082815260066020819052604090912060098101839055908101849055600a8101805460ff191660011790556002810180546001600160a01b0388166001600160a01b03199091161790556003018490556116406001600055565b505050505050565b6060600061165560025490565b905060008060005b838110156116b7573360066000611675846001611f5c565b81526020810191909152604001600020600801546001600160a01b0316036116a5576116a2600184611f5c565b92505b806116af81611f85565b91505061165d565b5060008267ffffffffffffffff8111156116d3576116d3611f46565b60405190808252806020026020018201604052801561170c57816020015b6116f9611bb7565b8152602001906001900390816116f15790505b50905060005b8481101561071b57336006600061172a846001611f5c565b81526020810191909152604001600020600801546001600160a01b03160361183f57600060068161175c846001611f5c565b815260208082019290925260409081016000908120548082526006808552918390208351610160810185528154815260018201546001600160a01b039081169682019690965260028201548616948101949094526003810154606085015260048101546080850152600581015460a08501529182015460c08401526007820154841660e084015260088201549093166101008301526009810154610120830152600a81015460ff16151561014083015285519293509185908790811061182457611824611f6f565b602090810291909101015261183a600186611f5c565b945050505b8061184981611f85565b915050611712565b610cd081336119b0565b61186582826112ea565b6107ce5760008281526001602081815260408084206001600160a01b0386168086529252808420805460ff19169093179092559051339285917f2f8788117e7eff1d82e926ec794901d17c78024a50270940304540a733656f0d9190a45050565b6118d082826112ea565b156107ce5760008281526001602090815260408083206001600160a01b0385168085529252808320805460ff1916905551339285917ff6391f5c32d9c69d2a47ea670b442974b53935d1edc7fd64eb21e047a839171b9190a45050565b60026000540361197f5760405162461bcd60e51b815260206004820152601f60248201527f5265656e7472616e637947756172643a207265656e7472616e742063616c6c0060448201526064016107bb565b6002600055565b60006127106119958385611feb565b61199f919061201f565b9392505050565b6107ce828261185b565b6119ba82826112ea565b6107ce576119c781611a09565b6119d2836020611a1b565b6040516020016119e3929190612065565b60408051601f198184030181529082905262461bcd60e51b82526107bb916004016120da565b60606105526001600160a01b03831660145b60606000611a2a836002611feb565b611a35906002611f5c565b67ffffffffffffffff811115611a4d57611a4d611f46565b6040519080825280601f01601f191660200182016040528015611a77576020820181803683370190505b509050600360fc1b81600081518110611a9257611a92611f6f565b60200101906001600160f81b031916908160001a905350600f60fb1b81600181518110611ac157611ac1611f6f565b60200101906001600160f81b031916908160001a9053506000611ae5846002611feb565b611af0906001611f5c565b90505b6001811115611b68576f181899199a1a9b1b9c1cb0b131b232b360811b85600f1660108110611b2457611b24611f6f565b1a60f81b828281518110611b3a57611b3a611f6f565b60200101906001600160f81b031916908160001a90535060049490941c93611b618161210d565b9050611af3565b50831561199f5760405162461bcd60e51b815260206004820181905260248201527f537472696e67733a20686578206c656e67746820696e73756666696369656e7460448201526064016107bb565b6040518061016001604052806000815260200160006001600160a01b0316815260200160006001600160a01b031681526020016000815260200160008152602001600081526020016000815260200160006001600160a01b0316815260200160006001600160a01b03168152602001600081526020016000151581525090565b600060208284031215611c4957600080fd5b81356001600160e01b03198116811461199f57600080fd5b600060208284031215611c7357600080fd5b5035919050565b602080825282518282018190526000919060409081850190868401855b82811015611d2f57815180518552868101516001600160a01b039081168887015286820151811687870152606080830151908701526080808301519087015260a0808301519087015260c0808301519087015260e08083015182169087015261010080830151909116908601526101208082015190860152610140908101511515908501526101609093019290850190600101611c97565b5091979650505050505050565b6001600160a01b0381168114610cd057600080fd5b60008060408385031215611d6457600080fd5b823591506020830135611d7681611d3c565b809150509250929050565b8015158114610cd057600080fd5b600080600080600080600080610100898b031215611dac57600080fd5b8835611db781611d3c565b97506020890135611dc781611d3c565b965060408901359550606089013594506080890135935060a0890135925060c0890135915060e0890135611dfa81611d81565b809150509295985092959890939650565b600080600060608486031215611e2057600080fd5b8335611e2b81611d3c565b95602085013595506040909401359392505050565b600060208284031215611e5257600080fd5b813561199f81611d3c565b60008060008060808587031215611e7357600080fd5b8435611e7e81611d3c565b966020860135965060408601359560600135945092505050565b60008060408385031215611eab57600080fd5b8235611eb681611d3c565b946020939093013593505050565b60008060008060008060c08789031215611edd57600080fd5b8635611ee881611d3c565b95506020870135611ef881611d3c565b95989597505050506040840135936060810135936080820135935060a0909101359150565b634e487b7160e01b600052601160045260246000fd5b8181038181111561055257610552611f1d565b634e487b7160e01b600052604160045260246000fd5b8082018082111561055257610552611f1d565b634e487b7160e01b600052603260045260246000fd5b600060018201611f9757611f97611f1d565b5060010190565b600060208284031215611fb057600080fd5b815161199f81611d3c565b6020808252601690820152752932b9ba3934b1ba32b2103a379036b2b6b132b9399760511b604082015260600190565b808202811582820484141761055257610552611f1d565b60006020828403121561201457600080fd5b815161199f81611d81565b60008261203c57634e487b7160e01b600052601260045260246000fd5b500490565b60005b8381101561205c578181015183820152602001612044565b50506000910152565b7f416363657373436f6e74726f6c3a206163636f756e742000000000000000000081526000835161209d816017850160208801612041565b7001034b99036b4b9b9b4b733903937b6329607d1b60179184019182015283516120ce816028840160208801612041565b01602801949350505050565b60208152600082518060208401526120f9816040850160208701612041565b601f01601f19169190910160400192915050565b60008161211c5761211c611f1d565b50600019019056fe829b824e2329e205435d941c9f13baf578548505283d29261236d8e6596d4636a2646970667358221220baae416e876bed685f66f2e41b5c0e1fd68dee752a0885e4b22111678ab6cc2c64736f6c63430008110033",
    "linkReferences": {}
  },
  "methodIdentifiers": {
    "DEFAULT_ADMIN_ROLE()": "a217fddf",
    "MEMBER_ROLE()": "a10f469e",
    "addMember(address)": "ca6d56dc",
    "createMarketItem(address,address,uint256,uint256,uint256,uint256,uint256,bool)": "3ab0c218",
    "createMarketSale(address,uint256)": "c23b139e",
    "feePercent()": "7fd6f15c",
    "fetchCreateNFTs()": "7cbad146",
    "fetchPurchasedNFTs()": "ee6ba234",
    "getMarketItems()": "29aa3a42",
    "getRoleAdmin(bytes32)": "248a9ca3",
    "grantRole(bytes32,address)": "2f2ff15d",
    "hasRole(bytes32,address)": "91d14854",
    "idToMarketItem(uint256)": "e61a70c0",
    "isMember(address)": "a230c524",
    "listItem(address,address,uint256,uint256,uint256,uint256)": "ddfad245",
    "offerMarketSale(address,uint256,uint256)": "3d137715",
    "owner()": "8da5cb5b",
    "proceedToTransfer(address,uint256,uint256,uint256)": "8ddee9e7",
    "renounceRole(bytes32,address)": "36568abe",
    "revokeMember(address)": "8adf23b9",
    "revokeRole(bytes32,address)": "d547741f",
    "setFees(uint256)": "3d18678e",
    "supportsInterface(bytes4)": "01ffc9a7",
    "unlistItem(uint256)": "5a599da8"
  },
  "id": 2
}