{
  "abi": [
    {
      "inputs": [],
      "stateMutability": "nonpayable",
      "type": "constructor"
    },
    {
      "anonymous": false,
      "inputs": [
        {
          "indexed": true,
          "internalType": "uint256",
          "name": "itemId",
          "type": "uint256"
        },
        {
          "indexed": true,
          "internalType": "address",
          "name": "nftContract",
          "type": "address"
        },
        {
          "indexed": true,
          "internalType": "uint256",
          "name": "tokenId",
          "type": "uint256"
        },
        {
          "indexed": false,
          "internalType": "uint256",
          "name": "price",
          "type": "uint256"
        },
        {
          "indexed": false,
          "internalType": "address",
          "name": "creator",
          "type": "address"
        },
        {
          "indexed": false,
          "internalType": "address",
          "name": "owner",
          "type": "address"
        }
      ],
      "name": "BoughtMarketItem",
      "type": "event"
    },
    {
      "anonymous": false,
      "inputs": [
        {
          "indexed": true,
          "internalType": "uint256",
          "name": "itemId",
          "type": "uint256"
        },
        {
          "indexed": true,
          "internalType": "address",
          "name": "nftContract",
          "type": "address"
        },
        {
          "indexed": false,
          "internalType": "address",
          "name": "donationAddress",
          "type": "address"
        },
        {
          "indexed": false,
          "internalType": "uint256",
          "name": "donationPer",
          "type": "uint256"
        },
        {
          "indexed": false,
          "internalType": "uint256",
          "name": "royaltyPer",
          "type": "uint256"
        },
        {
          "indexed": true,
          "internalType": "uint256",
          "name": "tokenId",
          "type": "uint256"
        },
        {
          "indexed": false,
          "internalType": "uint256",
          "name": "minPrice",
          "type": "uint256"
        },
        {
          "indexed": false,
          "internalType": "address",
          "name": "creator",
          "type": "address"
        },
        {
          "indexed": false,
          "internalType": "address",
          "name": "owner",
          "type": "address"
        },
        {
          "indexed": false,
          "internalType": "uint256",
          "name": "price",
          "type": "uint256"
        },
        {
          "indexed": false,
          "internalType": "bool",
          "name": "isActive",
          "type": "bool"
        }
      ],
      "name": "MarketItemCreated",
      "type": "event"
    },
    {
      "anonymous": false,
      "inputs": [
        {
          "indexed": true,
          "internalType": "bytes32",
          "name": "role",
          "type": "bytes32"
        },
        {
          "indexed": true,
          "internalType": "bytes32",
          "name": "previousAdminRole",
          "type": "bytes32"
        },
        {
          "indexed": true,
          "internalType": "bytes32",
          "name": "newAdminRole",
          "type": "bytes32"
        }
      ],
      "name": "RoleAdminChanged",
      "type": "event"
    },
    {
      "anonymous": false,
      "inputs": [
        {
          "indexed": true,
          "internalType": "bytes32",
          "name": "role",
          "type": "bytes32"
        },
        {
          "indexed": true,
          "internalType": "address",
          "name": "account",
          "type": "address"
        },
        {
          "indexed": true,
          "internalType": "address",
          "name": "sender",
          "type": "address"
        }
      ],
      "name": "RoleGranted",
      "type": "event"
    },
    {
      "anonymous": false,
      "inputs": [
        {
          "indexed": true,
          "internalType": "bytes32",
          "name": "role",
          "type": "bytes32"
        },
        {
          "indexed": true,
          "internalType": "address",
          "name": "account",
          "type": "address"
        },
        {
          "indexed": true,
          "internalType": "address",
          "name": "sender",
          "type": "address"
        }
      ],
      "name": "RoleRevoked",
      "type": "event"
    },
    {
      "inputs": [],
      "name": "DEFAULT_ADMIN_ROLE",
      "outputs": [
        {
          "internalType": "bytes32",
          "name": "",
          "type": "bytes32"
        }
      ],
      "stateMutability": "view",
      "type": "function"
    },
    {
      "inputs": [],
      "name": "MEMBER_ROLE",
      "outputs": [
        {
          "internalType": "bytes32",
          "name": "",
          "type": "bytes32"
        }
      ],
      "stateMutability": "view",
      "type": "function"
    },
    {
      "inputs": [
        {
          "internalType": "address",
          "name": "account",
          "type": "address"
        }
      ],
      "name": "addMember",
      "outputs": [],
      "stateMutability": "nonpayable",
      "type": "function"
    },
    {
      "inputs": [
        {
          "internalType": "address",
          "name": "nftContract",
          "type": "address"
        },
        {
          "internalType": "address",
          "name": "donationAdress",
          "type": "address"
        },
        {
          "internalType": "uint256",
          "name": "donationPer",
          "type": "uint256"
        },
        {
          "internalType": "uint256",
          "name": "royaltyPer",
          "type": "uint256"
        },
        {
          "internalType": "uint256",
          "name": "tokenId",
          "type": "uint256"
        },
        {
          "internalType": "uint256",
          "name": "minPrice",
          "type": "uint256"
        },
        {
          "internalType": "uint256",
          "name": "price",
          "type": "uint256"
        },
        {
          "internalType": "bool",
          "name": "isActive",
          "type": "bool"
        }
      ],
      "name": "createMarketItem",
      "outputs": [],
      "stateMutability": "nonpayable",
      "type": "function"
    },
    {
      "inputs": [
        {
          "internalType": "address",
          "name": "nftContract",
          "type": "address"
        },
        {
          "internalType": "uint256",
          "name": "itemId",
          "type": "uint256"
        }
      ],
      "name": "createMarketSale",
      "outputs": [],
      "stateMutability": "payable",
      "type": "function"
    },
    {
      "inputs": [],
      "name": "feePercent",
      "outputs": [
        {
          "internalType": "uint256",
          "name": "",
          "type": "uint256"
        }
      ],
      "stateMutability": "view",
      "type": "function"
    },
    {
      "inputs": [
        {
          "internalType": "bytes32",
          "name": "role",
          "type": "bytes32"
        }
      ],
      "name": "getRoleAdmin",
      "outputs": [
        {
          "internalType": "bytes32",
          "name": "",
          "type": "bytes32"
        }
      ],
      "stateMutability": "view",
      "type": "function"
    },
    {
      "inputs": [
        {
          "internalType": "bytes32",
          "name": "role",
          "type": "bytes32"
        },
        {
          "internalType": "address",
          "name": "account",
          "type": "address"
        }
      ],
      "name": "grantRole",
      "outputs": [],
      "stateMutability": "nonpayable",
      "type": "function"
    },
    {
      "inputs": [
        {
          "internalType": "bytes32",
          "name": "role",
          "type": "bytes32"
        },
        {
          "internalType": "address",
          "name": "account",
          "type": "address"
        }
      ],
      "name": "hasRole",
      "outputs": [
        {
          "internalType": "bool",
          "name": "",
          "type": "bool"
        }
      ],
      "stateMutability": "view",
      "type": "function"
    },
    {
      "inputs": [
        {
          "internalType": "uint256",
          "name": "",
          "type": "uint256"
        }
      ],
      "name": "idToMarketItem",
      "outputs": [
        {
          "internalType": "uint256",
          "name": "itemId",
          "type": "uint256"
        },
        {
          "internalType": "address",
          "name": "nftContract",
          "type": "address"
        },
        {
          "internalType": "address",
          "name": "donationAddress",
          "type": "address"
        },
        {
          "internalType": "uint256",
          "name": "donationPer",
          "type": "uint256"
        },
        {
          "internalType": "uint256",
          "name": "royaltyPer",
          "type": "uint256"
        },
        {
          "internalType": "uint256",
          "name": "tokenId",
          "type": "uint256"
        },
        {
          "internalType": "uint256",
          "name": "minPrice",
          "type": "uint256"
        },
        {
          "internalType": "address",
          "name": "creator",
          "type": "address"
        },
        {
          "internalType": "address",
          "name": "owner",
          "type": "address"
        },
        {
          "internalType": "uint256",
          "name": "price",
          "type": "uint256"
        },
        {
          "internalType": "bool",
          "name": "isActive",
          "type": "bool"
        }
      ],
      "stateMutability": "view",
      "type": "function"
    },
    {
      "inputs": [
        {
          "internalType": "address",
          "name": "account",
          "type": "address"
        }
      ],
      "name": "isMember",
      "outputs": [
        {
          "internalType": "bool",
          "name": "",
          "type": "bool"
        }
      ],
      "stateMutability": "view",
      "type": "function"
    },
    {
      "inputs": [
        {
          "internalType": "address",
          "name": "nftContract",
          "type": "address"
        },
        {
          "internalType": "address",
          "name": "_donationAdress",
          "type": "address"
        },
        {
          "internalType": "uint256",
          "name": "_donationPer",
          "type": "uint256"
        },
        {
          "internalType": "uint256",
          "name": "_minPrice",
          "type": "uint256"
        },
        {
          "internalType": "uint256",
          "name": "_itemId",
          "type": "uint256"
        },
        {
          "internalType": "uint256",
          "name": "_price",
          "type": "uint256"
        }
      ],
      "name": "listItem",
      "outputs": [],
      "stateMutability": "nonpayable",
      "type": "function"
    },
    {
      "inputs": [
        {
          "internalType": "address",
          "name": "nftContract",
          "type": "address"
        },
        {
          "internalType": "uint256",
          "name": "itemId",
          "type": "uint256"
        },
        {
          "internalType": "uint256",
          "name": "_nftPrice",
          "type": "uint256"
        }
      ],
      "name": "offerMarketSale",
      "outputs": [],
      "stateMutability": "payable",
      "type": "function"
    },
    {
      "inputs": [],
      "name": "owner",
      "outputs": [
        {
          "internalType": "address",
          "name": "",
          "type": "address"
        }
      ],
      "stateMutability": "view",
      "type": "function"
    },
    {
      "inputs": [
        {
          "internalType": "address",
          "name": "nftContract",
          "type": "address"
        },
        {
          "internalType": "uint256",
          "name": "price",
          "type": "uint256"
        },
        {
          "internalType": "uint256",
          "name": "feeCommision",
          "type": "uint256"
        },
        {
          "internalType": "uint256",
          "name": "itemId",
          "type": "uint256"
        }
      ],
      "name": "proceedToTransfer",
      "outputs": [],
      "stateMutability": "payable",
      "type": "function"
    },
    {
      "inputs": [
        {
          "internalType": "bytes32",
          "name": "role",
          "type": "bytes32"
        },
        {
          "internalType": "address",
          "name": "account",
          "type": "address"
        }
      ],
      "name": "renounceRole",
      "outputs": [],
      "stateMutability": "nonpayable",
      "type": "function"
    },
    {
      "inputs": [
        {
          "internalType": "address",
          "name": "account",
          "type": "address"
        }
      ],
      "name": "revokeMember",
      "outputs": [],
      "stateMutability": "nonpayable",
      "type": "function"
    },
    {
      "inputs": [
        {
          "internalType": "bytes32",
          "name": "role",
          "type": "bytes32"
        },
        {
          "internalType": "address",
          "name": "account",
          "type": "address"
        }
      ],
      "name": "revokeRole",
      "outputs": [],
      "stateMutability": "nonpayable",
      "type": "function"
    },
    {
      "inputs": [
        {
          "internalType": "uint256",
          "name": "_feePercent",
          "type": "uint256"
        }
      ],
      "name": "setFees",
      "outputs": [],
      "stateMutability": "nonpayable",
      "type": "function"
    },
    {
      "inputs": [
        {
          "internalType": "bytes4",
          "name": "interfaceId",
          "type": "bytes4"
        }
      ],
      "name": "supportsInterface",
      "outputs": [
        {
          "internalType": "bool",
          "name": "",
          "type": "bool"
        }
      ],
      "stateMutability": "view",
      "type": "function"
    },
    {
      "inputs": [
        {
          "internalType": "uint256",
          "name": "_itemId",
          "type": "uint256"
        }
      ],
      "name": "unlistItem",
      "outputs": [],
      "stateMutability": "nonpayable",
      "type": "function"
    }
  ],
  "bytecode": {
    "object": "0x608060405234801561001057600080fd5b506001600055600480546001600160a01b03191633908117909155610056907f829b824e2329e205435d941c9f13baf578548505283d29261236d8e6596d463690610060565b60c86005556100f5565b61006a828261006e565b5050565b60008281526001602090815260408083206001600160a01b038516845290915290205460ff1661006a5760008281526001602081815260408084206001600160a01b0386168086529252808420805460ff19169093179092559051339285917f2f8788117e7eff1d82e926ec794901d17c78024a50270940304540a733656f0d9190a45050565b6119d4806101046000396000f3fe60806040526004361061012a5760003560e01c80638da5cb5b116100ab578063a230c5241161006f578063a230c52414610330578063c23b139e14610350578063ca6d56dc14610363578063d547741f14610383578063ddfad245146103a3578063e61a70c0146103c357600080fd5b80638da5cb5b1461028e5780638ddee9e7146102c657806391d14854146102d9578063a10f469e146102f9578063a217fddf1461031b57600080fd5b80633d137715116100f25780633d137715146102055780633d18678e146102185780635a599da8146102385780637fd6f15c146102585780638adf23b91461026e57600080fd5b806301ffc9a71461012f578063248a9ca3146101645780632f2ff15d146101a357806336568abe146101c55780633ab0c218146101e5575b600080fd5b34801561013b57600080fd5b5061014f61014a36600461156c565b6104b4565b60405190151581526020015b60405180910390f35b34801561017057600080fd5b5061019561017f366004611596565b6000908152600160208190526040909120015490565b60405190815260200161015b565b3480156101af57600080fd5b506101c36101be3660046115c4565b6104eb565b005b3480156101d157600080fd5b506101c36101e03660046115c4565b610516565b3480156101f157600080fd5b506101c3610200366004611602565b610599565b6101c361021336600461167e565b6108c5565b34801561022457600080fd5b506101c3610233366004611596565b610978565b34801561024457600080fd5b506101c3610253366004611596565b6109a2565b34801561026457600080fd5b5061019560055481565b34801561027a57600080fd5b506101c36102893660046116b3565b610a9a565b34801561029a57600080fd5b506004546102ae906001600160a01b031681565b6040516001600160a01b03909116815260200161015b565b6101c36102d43660046116d0565b610ad7565b3480156102e557600080fd5b5061014f6102f43660046115c4565b610ea8565b34801561030557600080fd5b5061019560008051602061197f83398151915281565b34801561032757600080fd5b50610195600081565b34801561033c57600080fd5b5061014f61034b3660046116b3565b610ed3565b6101c361035e36600461170b565b610eed565b34801561036f57600080fd5b506101c361037e3660046116b3565b610fab565b34801561038f57600080fd5b506101c361039e3660046115c4565b610fe8565b3480156103af57600080fd5b506101c36103be366004611737565b61100e565b3480156103cf57600080fd5b5061044c6103de366004611596565b600660208190526000918252604090912080546001820154600283015460038401546004850154600586015496860154600787015460088801546009890154600a9099015497996001600160a01b039788169996881698959794969095939492831693929091169160ff168b565b604080519b8c526001600160a01b039a8b1660208d0152988a16988b019890985260608a0196909652608089019490945260a088019290925260c0870152841660e086015290921661010084015261012083019190915215156101408201526101600161015b565b60006001600160e01b03198216637965db0b60e01b14806104e557506301ffc9a760e01b6001600160e01b03198316145b92915050565b6000828152600160208190526040909120015461050781611206565b6105118383611210565b505050565b6001600160a01b038116331461058b5760405162461bcd60e51b815260206004820152602f60248201527f416363657373436f6e74726f6c3a2063616e206f6e6c792072656e6f756e636560448201526e103937b632b9903337b91039b2b63360891b60648201526084015b60405180910390fd5b610595828261127b565b5050565b6105a16112e2565b6040516331a9108f60e11b81526004810185905233906001600160a01b038a1690636352211e90602401602060405180830381865afa1580156105e8573d6000803e3d6000fd5b505050506040513d601f19601f8201168201806040525081019061060c9190611790565b6001600160a01b0316146106625760405162461bcd60e51b815260206004820152601e60248201527f53656e646572206973206e6f7420746865206f776e6572206f66204e465400006044820152606401610582565b610670600280546001019055565b600061067b60025490565b90506040518061016001604052808281526020018a6001600160a01b03168152602001896001600160a01b03168152602001888152602001878152602001868152602001858152602001336001600160a01b03168152602001336001600160a01b03168152602001848152602001831515815250600660008381526020019081526020016000206000820151816000015560208201518160010160006101000a8154816001600160a01b0302191690836001600160a01b0316021790555060408201518160020160006101000a8154816001600160a01b0302191690836001600160a01b03160217905550606082015181600301556080820151816004015560a0820151816005015560c0820151816006015560e08201518160070160006101000a8154816001600160a01b0302191690836001600160a01b031602179055506101008201518160080160006101000a8154816001600160a01b0302191690836001600160a01b03160217905550610120820151816009015561014082015181600a0160006101000a81548160ff02191690831515021790555090505084896001600160a01b0316827f385485901d61f32454f94f9b07b74d02f7b33e87e10ddeb3e50e06ac7994c39e8b8b8b8a33338c8c6040516108a89897969594939291906001600160a01b039889168152602081019790975260408701959095526060860193909352908516608085015290931660a083015260c082019290925290151560e08201526101000190565b60405180910390a4506108bb6001600055565b5050505050505050565b6108cd6112e2565b6000828152600660208190526040822001546005549091906108f090849061133b565b905060006108fe82346117c3565b90508281101561095f5760405162461bcd60e51b815260206004820152602660248201527f50726963652073686f756c642062652067726561746572207468616e206d696e60448201526520707269636560d01b6064820152608401610582565b61096b86858488610ad7565b5050506105116001600055565b61098133610ed3565b61099d5760405162461bcd60e51b8152600401610582906117d6565b600555565b6109aa6112e2565b6000818152600660205260409020600a015460ff16610a0b5760405162461bcd60e51b815260206004820152601a60248201527f4974656d20697320616c7265616479206e6f74204c69737465640000000000006044820152606401610582565b6000818152600660205260409020600801546001600160a01b03163314610a745760405162461bcd60e51b815260206004820152601e60248201527f4f6e6c79206f776e65722063616e204c697374207468696572206974656d00006044820152606401610582565b6000818152600660205260409020600a01805460ff19169055610a976001600055565b50565b610aa333610ed3565b610abf5760405162461bcd60e51b8152600401610582906117d6565b610a9760008051602061197f8339815191528261127b565b6000818152600660205260409020600a015460ff16610b2d5760405162461bcd60e51b8152602060048201526012602482015271125d195b481a5cc81b9bdd081b1a5cdd195960721b6044820152606401610582565b600081815260066020526040902060080154336001600160a01b0390911603610b985760405162461bcd60e51b815260206004820152601760248201527f53656e646572206973206e6f7420746865206f776e65720000000000000000006044820152606401610582565b6000610ba483856117c3565b60008381526006602052604090206002808201546005909201546004549394506001600160a01b0392831693909216906108fc90610be3908890611806565b6040518115909202916000818181858888f19350505050158015610c0b573d6000803e3d6000fd5b506001600160a01b03821615801590610c34575060008481526006602052604090206003015415155b15610c9e57600084815260066020526040812060030154610c5690889061133b565b6040519091506001600160a01b0384169082156108fc029083906000818181858888f19350505050158015610c8f573d6000803e3d6000fd5b50610c9a81856117c3565b9350505b600084815260066020526040902060088101546007909101546001600160a01b03908116911614801590610ce2575060008481526006602052604090206004015415155b15610d5c57600084815260066020526040812060040154610d0490889061133b565b6000868152600660205260408082206007015490519293506001600160a01b03169183156108fc0291849190818181858888f19350505050158015610d4d573d6000803e3d6000fd5b50610d5881856117c3565b9350505b6000848152600660205260408082206008015490516001600160a01b039091169185156108fc02918691818181858888f19350505050158015610da3573d6000803e3d6000fd5b50600084815260066020526040908190206008015490516323b872dd60e01b81526001600160a01b03918216600482015233602482015260448101839052908816906323b872dd90606401600060405180830381600087803b158015610e0857600080fd5b505af1158015610e1c573d6000803e3d6000fd5b505050600085815260066020908152604091829020600a8101805460ff191690556008018054336001600160a01b0319909116811790915582518a81529182018190528183015290518392506001600160a01b038a169187917fdbb4d5ec4127b942b3f194128757813437bbd853519ecb9800d246003b5f0c4d9181900360600190a450505050505050565b60009182526001602090815260408084206001600160a01b0393909316845291905290205460ff1690565b60006104e560008051602061197f83398151915283610ea8565b610ef56112e2565b600081815260066020526040812060090154600554909190610f1890839061133b565b90506000610f26828461181d565b905080341015610f925760405162461bcd60e51b815260206004820152603160248201527f506c65617365206d616b652074686520707269636520746f2062652073616d65604482015270206173206c697374696e6720707269636560781b6064820152608401610582565b610f9e85848487610ad7565b5050506105956001600055565b610fb433610ed3565b610fd05760405162461bcd60e51b8152600401610582906117d6565b610a9760008051602061197f8339815191528261135b565b6000828152600160208190526040909120015461100481611206565b610511838361127b565b6110166112e2565b6000828152600660205260409081902060080154905163e985e9c560e01b81526001600160a01b0391821660048201523060248201529087169063e985e9c590604401602060405180830381865afa158015611076573d6000803e3d6000fd5b505050506040513d601f19601f8201168201806040525081019061109a9190611830565b6110de5760405162461bcd60e51b815260206004820152601560248201527420b8383937bb30b61034b9903737ba1033b4bb32b760591b6044820152606401610582565b6000828152600660205260409020600a015460ff16156111395760405162461bcd60e51b8152602060048201526016602482015275125d195b481a5cc8185b1c9958591e48131a5cdd195960521b6044820152606401610582565b6000828152600660205260409020600801546001600160a01b031633146111a25760405162461bcd60e51b815260206004820152601e60248201527f4f6e6c79206f776e65722063616e204c697374207468696572206974656d00006044820152606401610582565b600082815260066020819052604090912060098101839055908101849055600a8101805460ff191660011790556002810180546001600160a01b0388166001600160a01b03199091161790556003018490556111fe6001600055565b505050505050565b610a978133611365565b61121a8282610ea8565b6105955760008281526001602081815260408084206001600160a01b0386168086529252808420805460ff19169093179092559051339285917f2f8788117e7eff1d82e926ec794901d17c78024a50270940304540a733656f0d9190a45050565b6112858282610ea8565b156105955760008281526001602090815260408083206001600160a01b0385168085529252808320805460ff1916905551339285917ff6391f5c32d9c69d2a47ea670b442974b53935d1edc7fd64eb21e047a839171b9190a45050565b6002600054036113345760405162461bcd60e51b815260206004820152601f60248201527f5265656e7472616e637947756172643a207265656e7472616e742063616c6c006044820152606401610582565b6002600055565b600061271061134a8385611806565b611354919061184d565b9392505050565b6105958282611210565b61136f8282610ea8565b6105955761137c816113be565b6113878360206113d0565b604051602001611398929190611893565b60408051601f198184030181529082905262461bcd60e51b825261058291600401611908565b60606104e56001600160a01b03831660145b606060006113df836002611806565b6113ea90600261181d565b67ffffffffffffffff8111156114025761140261193b565b6040519080825280601f01601f19166020018201604052801561142c576020820181803683370190505b509050600360fc1b8160008151811061144757611447611951565b60200101906001600160f81b031916908160001a905350600f60fb1b8160018151811061147657611476611951565b60200101906001600160f81b031916908160001a905350600061149a846002611806565b6114a590600161181d565b90505b600181111561151d576f181899199a1a9b1b9c1cb0b131b232b360811b85600f16601081106114d9576114d9611951565b1a60f81b8282815181106114ef576114ef611951565b60200101906001600160f81b031916908160001a90535060049490941c9361151681611967565b90506114a8565b5083156113545760405162461bcd60e51b815260206004820181905260248201527f537472696e67733a20686578206c656e67746820696e73756666696369656e746044820152606401610582565b60006020828403121561157e57600080fd5b81356001600160e01b03198116811461135457600080fd5b6000602082840312156115a857600080fd5b5035919050565b6001600160a01b0381168114610a9757600080fd5b600080604083850312156115d757600080fd5b8235915060208301356115e9816115af565b809150509250929050565b8015158114610a9757600080fd5b600080600080600080600080610100898b03121561161f57600080fd5b883561162a816115af565b9750602089013561163a816115af565b965060408901359550606089013594506080890135935060a0890135925060c0890135915060e089013561166d816115f4565b809150509295985092959890939650565b60008060006060848603121561169357600080fd5b833561169e816115af565b95602085013595506040909401359392505050565b6000602082840312156116c557600080fd5b8135611354816115af565b600080600080608085870312156116e657600080fd5b84356116f1816115af565b966020860135965060408601359560600135945092505050565b6000806040838503121561171e57600080fd5b8235611729816115af565b946020939093013593505050565b60008060008060008060c0878903121561175057600080fd5b863561175b816115af565b9550602087013561176b816115af565b95989597505050506040840135936060810135936080820135935060a0909101359150565b6000602082840312156117a257600080fd5b8151611354816115af565b634e487b7160e01b600052601160045260246000fd5b818103818111156104e5576104e56117ad565b6020808252601690820152752932b9ba3934b1ba32b2103a379036b2b6b132b9399760511b604082015260600190565b80820281158282048414176104e5576104e56117ad565b808201808211156104e5576104e56117ad565b60006020828403121561184257600080fd5b8151611354816115f4565b60008261186a57634e487b7160e01b600052601260045260246000fd5b500490565b60005b8381101561188a578181015183820152602001611872565b50506000910152565b7f416363657373436f6e74726f6c3a206163636f756e74200000000000000000008152600083516118cb81601785016020880161186f565b7001034b99036b4b9b9b4b733903937b6329607d1b60179184019182015283516118fc81602884016020880161186f565b01602801949350505050565b602081526000825180602084015261192781604085016020870161186f565b601f01601f19169190910160400192915050565b634e487b7160e01b600052604160045260246000fd5b634e487b7160e01b600052603260045260246000fd5b600081611976576119766117ad565b50600019019056fe829b824e2329e205435d941c9f13baf578548505283d29261236d8e6596d4636a26469706673582212207067c999509cd9f4893c48dda4f06f77a50df2b6496a7fd7efa5b291dfb0e82564736f6c63430008110033",
    "linkReferences": {}
  },
  "methodIdentifiers": {
    "DEFAULT_ADMIN_ROLE()": "a217fddf",
    "MEMBER_ROLE()": "a10f469e",
    "addMember(address)": "ca6d56dc",
    "createMarketItem(address,address,uint256,uint256,uint256,uint256,uint256,bool)": "3ab0c218",
    "createMarketSale(address,uint256)": "c23b139e",
    "feePercent()": "7fd6f15c",
    "getRoleAdmin(bytes32)": "248a9ca3",
    "grantRole(bytes32,address)": "2f2ff15d",
    "hasRole(bytes32,address)": "91d14854",
    "idToMarketItem(uint256)": "e61a70c0",
    "isMember(address)": "a230c524",
    "listItem(address,address,uint256,uint256,uint256,uint256)": "ddfad245",
    "offerMarketSale(address,uint256,uint256)": "3d137715",
    "owner()": "8da5cb5b",
    "proceedToTransfer(address,uint256,uint256,uint256)": "8ddee9e7",
    "renounceRole(bytes32,address)": "36568abe",
    "revokeMember(address)": "8adf23b9",
    "revokeRole(bytes32,address)": "d547741f",
    "setFees(uint256)": "3d18678e",
    "supportsInterface(bytes4)": "01ffc9a7",
    "unlistItem(uint256)": "5a599da8"
  },
  "id": 1
}