{
  "_format": "hh-sol-artifact-1",
  "contractName": "HelloWorld",
  "sourceName": "contracts/HelloWorld.sol",
  "abi": [
    {
      "inputs": [
        {
          "internalType": "string",
          "name": "_greeting",
          "type": "string"
        }
      ],
      "stateMutability": "nonpayable",
      "type": "constructor"
    },
    {
      "inputs": [],
      "name": "greet",
      "outputs": [
        {
          "internalType": "string",
          "name": "",
          "type": "string"
        }
      ],
      "stateMutability": "view",
      "type": "function"
    },
    {
      "inputs": [],
      "name": "owner",
      "outputs": [
        {
          "internalType": "address",
          "name": "",
          "type": "address"
        }
      ],
      "stateMutability": "view",
      "type": "function"
    },
    {
      "inputs": [
        {
          "internalType": "string",
          "name": "_greeting",
          "type": "string"
        }
      ],
      "name": "updateGreeting",
      "outputs": [],
      "stateMutability": "payable",
      "type": "function"
    },
    {
      "inputs": [],
      "name": "value",
      "outputs": [
        {
          "internalType": "uint256",
          "name": "",
          "type": "uint256"
        }
      ],
      "stateMutability": "view",
      "type": "function"
    },
    {
      "inputs": [],
      "name": "version",
      "outputs": [
        {
          "internalType": "uint256",
          "name": "",
          "type": "uint256"
        }
      ],
      "stateMutability": "view",
      "type": "function"
    }
  ],
  "bytecode": "0x6080604052600060015573b4fbf271143f4fbf7b91a5ded31805e42b2208d6600460006101000a81548173ffffffffffffffffffffffffffffffffffffffff021916908373ffffffffffffffffffffffffffffffffffffffff1602179055503480156200006b57600080fd5b5060405162000ab438038062000ab48339818101604052810190620000919190620002fe565b8060009080519060200190620000a9929190620000b1565b5050620003b3565b828054620000bf906200037e565b90600052602060002090601f016020900481019282620000e357600085556200012f565b82601f10620000fe57805160ff19168380011785556200012f565b828001600101855582156200012f579182015b828111156200012e57825182559160200191906001019062000111565b5b5090506200013e919062000142565b5090565b5b808211156200015d57600081600090555060010162000143565b5090565b6000604051905090565b600080fd5b600080fd5b600080fd5b600080fd5b6000601f19601f8301169050919050565b7f4e487b7100000000000000000000000000000000000000000000000000000000600052604160045260246000fd5b620001ca826200017f565b810181811067ffffffffffffffff82111715620001ec57620001eb62000190565b5b80604052505050565b60006200020162000161565b90506200020f8282620001bf565b919050565b600067ffffffffffffffff82111562000232576200023162000190565b5b6200023d826200017f565b9050602081019050919050565b60005b838110156200026a5780820151818401526020810190506200024d565b838111156200027a576000848401525b50505050565b600062000297620002918462000214565b620001f5565b905082815260208101848484011115620002b657620002b56200017a565b5b620002c38482856200024a565b509392505050565b600082601f830112620002e357620002e262000175565b5b8151620002f584826020860162000280565b91505092915050565b6000602082840312156200031757620003166200016b565b5b600082015167ffffffffffffffff81111562000338576200033762000170565b5b6200034684828501620002cb565b91505092915050565b7f4e487b7100000000000000000000000000000000000000000000000000000000600052602260045260246000fd5b600060028204905060018216806200039757607f821691505b602082108103620003ad57620003ac6200034f565b5b50919050565b6106f180620003c36000396000f3fe60806040526004361061004a5760003560e01c80632867cc441461004f5780633fa4f2451461006b57806354fd4d50146100965780638da5cb5b146100c1578063cfae3217146100ec575b600080fd5b61006960048036038101906100649190610453565b610117565b005b34801561007757600080fd5b50610080610192565b60405161008d91906104b5565b60405180910390f35b3480156100a257600080fd5b506100ab610198565b6040516100b891906104b5565b60405180910390f35b3480156100cd57600080fd5b506100d661019e565b6040516100e39190610511565b60405180910390f35b3480156100f857600080fd5b506101016101c4565b60405161010e91906105b4565b60405180910390f35b33600260006101000a81548173ffffffffffffffffffffffffffffffffffffffff021916908373ffffffffffffffffffffffffffffffffffffffff1602179055503460038190555060018060008282546101719190610605565b92505081905550806000908051906020019061018e929190610256565b5050565b60035481565b60015481565b600260009054906101000a900473ffffffffffffffffffffffffffffffffffffffff1681565b6060600080546101d39061068a565b80601f01602080910402602001604051908101604052809291908181526020018280546101ff9061068a565b801561024c5780601f106102215761010080835404028352916020019161024c565b820191906000526020600020905b81548152906001019060200180831161022f57829003601f168201915b5050505050905090565b8280546102629061068a565b90600052602060002090601f01602090048101928261028457600085556102cb565b82601f1061029d57805160ff19168380011785556102cb565b828001600101855582156102cb579182015b828111156102ca5782518255916020019190600101906102af565b5b5090506102d891906102dc565b5090565b5b808211156102f55760008160009055506001016102dd565b5090565b6000604051905090565b600080fd5b600080fd5b600080fd5b600080fd5b6000601f19601f8301169050919050565b7f4e487b7100000000000000000000000000000000000000000000000000000000600052604160045260246000fd5b61036082610317565b810181811067ffffffffffffffff8211171561037f5761037e610328565b5b80604052505050565b60006103926102f9565b905061039e8282610357565b919050565b600067ffffffffffffffff8211156103be576103bd610328565b5b6103c782610317565b9050602081019050919050565b82818337600083830152505050565b60006103f66103f1846103a3565b610388565b90508281526020810184848401111561041257610411610312565b5b61041d8482856103d4565b509392505050565b600082601f83011261043a5761043961030d565b5b813561044a8482602086016103e3565b91505092915050565b60006020828403121561046957610468610303565b5b600082013567ffffffffffffffff81111561048757610486610308565b5b61049384828501610425565b91505092915050565b6000819050919050565b6104af8161049c565b82525050565b60006020820190506104ca60008301846104a6565b92915050565b600073ffffffffffffffffffffffffffffffffffffffff82169050919050565b60006104fb826104d0565b9050919050565b61050b816104f0565b82525050565b60006020820190506105266000830184610502565b92915050565b600081519050919050565b600082825260208201905092915050565b60005b8381101561056657808201518184015260208101905061054b565b83811115610575576000848401525b50505050565b60006105868261052c565b6105908185610537565b93506105a0818560208601610548565b6105a981610317565b840191505092915050565b600060208201905081810360008301526105ce818461057b565b905092915050565b7f4e487b7100000000000000000000000000000000000000000000000000000000600052601160045260246000fd5b60006106108261049c565b915061061b8361049c565b9250827fffffffffffffffffffffffffffffffffffffffffffffffffffffffffffffffff038211156106505761064f6105d6565b5b828201905092915050565b7f4e487b7100000000000000000000000000000000000000000000000000000000600052602260045260246000fd5b600060028204905060018216806106a257607f821691505b6020821081036106b5576106b461065b565b5b5091905056fea26469706673582212201c74c0c941154c3710df8aa238e9b5ba81523dc4a7ddda1d6e842d2cbd05756364736f6c634300080d0033",
  "linkReferences": {},
  "deployedLinkReferences": {}
}